:10000000362E00308A000408840A820700348634C1
:1000100072341434EB34863472341534EA34863452
:1000200072341634E934863472340E34F134863442
:1000300072340F34F034863472340A34F534863432
:1000400072341234ED34863472341334EC34863422
:1000500072340934F634863472340734F834863412
:1000600072340D34F2340034003400340A3406346F
:1000700007340334093404340134013401340534C1
:1000800006340734033409340434023402340234AD
:1000900001340034003400340034003401340134BD
:1000A0000134053405340534033403340334003497
:1000B000043402340234043400340434003402348E
:0600C000602F662FB42F33
:100C6C008312FF30A400FF30A50083010F2F8B01EE
:100C7C00FF3083168500860083128501860183165A
:100C8C0081130800F2008312031385147208602686
:100C9C000230831203138506080002308316850682
:100CAC001030482604306026013048260230831666
:100CBC0085060800F100F1037108FF3A03190800DA
:100CCC005430F000F00B682E6B2E5430F000F00B0B
:100CDC006D2E702E1130F000F00B722E612EF5007F
:100CEC00792E5326842E75083F3E84000120003A4D
:100CFC000319772E013A0319772E842E3630F4001F
:100D0C003D30F300F30B882EF40B882E8D2E08004B
:100D1C00F70002308316850610304826083060260E
:100D2C00F801F901013048267708F300013003106F
:100D3C00F30D0310F30D7307F400780874078400A7
:100D4C000120F5000130F600790AAE2E0310F60DE5
:100D5C00FF3E031DAC2E760875050319B72E033024
:100D6C00B82E01306026F90A7908803A783E031CC7
:100D7C00982EF80A7808803A7C3E031C972E013096
:100D8C0048260230831685060800F4000130F00076
:100D9C007408513E84000120013ED62E0310F00D44
:100DAC00FF3E031DD42E7008F5000130F0007408CE
:100DBC00483E84000120013EE52E0310F00DFF3E5D
:100DCC00031DE32E7008F2008312031386017509CC
:100DDC00831686000000FF30F300F6018312031324
:100DEC0006087205F3050730F1007D30F000F00BBA
:100DFC00FD2EF10BFD2E0430F60A7602031CF42EA8
:100E0C0075088316031386060030F308031D0130A2
:100E1C0008003D26342FA3012308CB26003A831269
:100E2C0003191C2F2308A4005E27212F0930A30AC5
:100E3C002302031C122F831203132408FF3A031DF1
:100E4C00342F0D30A100FB30A000A00B2B2FA10BD9
:100E5C002B2F302F342F8312240875268312031363
:100E6C002408FF3A0319112F2408CB26003A031D3E
:100E7C00312FFF308312A4000230A2004C30A100AD
:100E8C002730A000A00B482FA10B482FA20B482FF6
:100E9C004F2F023083120313A2003F30A1002B30DE
:100EAC00A000A00B572FA10B572FA20B572F342F9D
:100EBC00FD00E82F7D082D3E840001208E26F62FA4
:100ECC000230FC004C30FB002730FA00FA0B6C2F80
:100EDC00FB0B6C2FFC0B6C2F732F0230FC003F3084
:100EEC00FB002B30FA00FA0B792FFB0B792FFC0B44
:100EFC00792F7D08CB26003A03198A2F7D082D3EC9
:100F0C00840001208E26F62F0230FC004C30FB00B2
:100F1C002730FA00FA0B902FFB0B902FFC0B902F25
:100F2C00972F0230FC003F30FB002B30FA00FA0BFD
:100F3C009D2FFB0B9D2FFC0B9D2F7D08CB26003A84
:100F4C000319AE2F7D08363E840001208E26F62F25
:100F5C007D082D3E840001208E26F62F2508FF3AB1
:100F6C000319E42FA50803197D030319CA2F250BB8
:100F7C00C32F7D08023A0319CA2F2508023A031D14
:100F8C00CD2FFD08031DCD2F7D082D3EE12F25080B
:100F9C00023A03197D030319DF2F250BD82F7D0887
:100FAC000319DF2FA508031DE42F7D08023A031D4A
:100FBC00E42F7D08363E840001208E267D088312A6
:100FCC00A500F62F7D083F3E8400012084000330ED
:100FDC0004020318F62F00308A00603004078200E8
:100FEC003630FB003D30FA00FA0BFA2FFB0BFA2FD0
:040FFC00FF2F0800BB
:02400E0009FFA8
:00000001FF
