:100000004C2E00308A000408840A820700348634AB
:1000100072341434EB34863472341534EA34863452
:1000200072341634E934863472340E34F134863442
:1000300072340F34F034863472340A34F534863432
:1000400072341234ED34863472341334EC34863422
:1000500072340934F634863472340734F834863412
:1000600072340D34F2340034003400340A3406346F
:1000700007340334093404340134013401340534C1
:1000800006340734033409340434023402340234AD
:1000900001340034003400340034003404340434B7
:1000A000043405340534053406340634063400348B
:1000B0000134023400340134023400340134023497
:0600C0006E2F742FB42F17
:100C98008312FF30A000FF30A1008301242F8B01B5
:100CA800FF3083168500860083128501860183162E
:100CB80081130800F2008312031385147208762644
:100CC8000230831203138506080002308316850656
:100CD80010305E260430762601305E2602308316F8
:100CE80085060800F100F1037108FF3A03190800AE
:100CF8001430F000F00B7E2E812E1430F000F00B33
:100D0800832E862E0430F000F00B882E772EF50007
:100D18008F2E69269A2E75083F3E84000120003ADE
:100D280003198D2E013A03198D2E9A2E0E30F400D8
:100D38004E30F300F30B9E2EF40B9E2E000008009D
:100D4800F70002308316850610305E2608307626B6
:100D5800F801F90101305E267708F300013003102D
:100D6800F30D0310F30D7307F4007808740784007B
:100D78000120F5000130F600790AC42E0310F60DA3
:100D8800FF3E031DC22E760875050319CD2E0330CC
:100D9800CE2E01307626F90A7908803A783E031C6F
:100DA800AE2EF80A7808803A7C3E031CAD2E01303E
:100DB8005E260230831685060800F3000130F00035
:100DC8007308513E84000120013EEC2E0310F00D03
:100DD800FF3E031DEA2E7008F4000130F00073088E
:100DE800483E84000120013EFB2E0310F00DFF3E1B
:100DF800031DF92E7008F10083120313860174098C
:100E0800831686000000FF30F200F50183120313F9
:100E180006087105F205F930F000122FF00B112FBA
:100E2800152F162F0430F50A7502031C0A2F7408B3
:100E38008316031386060030F208031D01300800EC
:100E48005326492FFD017D08E126003A0319312F69
:100E58007D088312A0006C27362F0930FD0A7D0219
:100E6800031C272F831203132008FF3A031D492F61
:100E78000430A3003D30A200A20B402FA30B402F4B
:100E8800452F492F831220088B268312031320082D
:100E9800FF3A0319262F2008E126003A031D462FA2
:100EA800FF308312A0005330A300C930A200A20B68
:100EB8005B2FA30B5B2F602F503083120313A3000B
:100EC8008A30A200A20B662FA30B662F0000492FC1
:100ED800FC00E82F7C082D3E84000120A426F62F74
:100EE8005330FB00C930FA00FA0B782FFB0B782F30
:100EF8007D2F5030FB008A30FA00FA0B812FFB0B54
:100F0800812F00007C08E126003A0319912F7C0804
:100F18002D3E84000120A426F62F5330FB00C93053
:100F2800FA00FA0B952FFB0B952F9A2F5030FB00E8
:100F38008A30FA00FA0B9E2FFB0B9E2F00007C08CC
:100F4800E126003A0319AE2F7C08363E84000120C2
:100F5800A426F62F7C082D3E84000120A426F62F17
:100F68002108FF3A0319E42FA10803197C03031988
:100F7800CA2F210BC32F7C08023A0319CA2F210854
:100F8800023A031DCD2FFC08031DCD2F7C082D3EF2
:100F9800E12F2108023A03197C030319DF2F210BE3
:100FA800D82F7C080319DF2FA108031DE42F7C0824
:100FB800023A031DE42F7C08363E84000120A42653
:100FC8007C088312A100F62F7C083F3E8400012094
:100FD8008400033004020318F62F00308A006030C2
:100FE800040782000E30FB004E30FA00FA0BFA2F8D
:080FF800FB0BFA2F00000800BA
:02400E0001FFB0
:00000001FF
